:02000000EA2BE9
:100784003F3406345B344F3466346D347C34073480
:100794007F346F3483168601851583129701861D75
:1007A400D42BD52BD12B09301706031DDA2BDB2BC9
:1007B400DE2B0C088600970117080C3E8400831377
:1007C400000886000130960016089707D12B0028F0
:1007D400C2238C00C3238D00C4238E00C5238F0045
:1007E400C6239000C7239100C8239200C923930015
:0C07F400CA239400CB2395008301CC2B7A
:08400000FF3FFF3FFF3FFF3FC0
:02400E00F93F78
:00000001FF
