:02000000EA2BE9
:100714003F3406345B344F3466346D347C340734F0
:100724007F346F34831686018312980199018312F2
:100734009A019B018312051485101A080C3E84004B
:1007440083130008860082309700DD309600960BF4
:10075400A92B970BA92BAE2B83120510851418080F
:100764000C3E840083130008860082309700DD303D
:100774009600960BBB2B970BBB2BC02B013083121F
:100784009A0703189B0A00309B071B08803ACF0086
:1007940080304F02031DD02B0A301A02031CD32BC6
:1007A400D42B9C2B0130831298070318990A00302C
:1007B40099071908803ACF0080304F02031DE42BBB
:1007C4000A301802031CE72BE82B992B962B0028E0
:1007D4008A238C008B238D008C238E008D238F0025
:1007E4008E2390008F2391009023920091239300F5
:0C07F40092239400932395008301942B22
:08400000FF3FFF3FFF3FFF3FC0
:02400E00F93F78
:00000001FF
