:02000000FE2BD5
:1007460083160515860183128F018312051DAC2BB6
:10075600AD2BD22B08300F020318B22BB32BD22BA2
:1007660001308C000F0AB92B03108C0DFF3E031DC0
:10077600B72B0C088D000D08860401308C000C0880
:100786008F0702308E0045308D00A9308C008C0B0F
:10079600CA2B8D0BCA2B8E0BCA2BD12BA82B051D52
:1007A600D52BD62BA82B08300F02031CDB2BDC2BFA
:1007B600A82BF72B01308C000F0AE32B03108C0DAE
:1007C600FF3E031DE12B0C08FF3A8D000D08860540
:1007D60082308D00DD308C008C0BEF2B8D0BEF2BD8
:1007E600F42B013083128F020F08031DFB2BFC2B09
:0A07F600DD2BA82B00288301A32BA4
:08400000FF3FFF3FFF3FFF3FC0
:02400E00FA3F77
:00000001FF
