:020000000B28CB
:10000800CE00030E831296000A0897000E280C28CB
:10001800830151288B130310861B03140030031827
:1000280001308C008D010310061B031400300318E7
:1000380001308E008F010310861A03140030031854
:100048000130900091010E08100492000F0811046D
:1000580093000C08120494000D081304950014086A
:100068001504031938283928472805140B308E0041
:1000780026308D005D308C008C0B40288D0B40287D
:100088008E0B402847280B108B17831217088A00FD
:10009800160E8300CE0E4E0E0900831601178B171D
:1000A8008B15FE3083129800180883168505FE30DC
:1000B8008312980018088505F0308316860083128D
:1000C800861402309A0004309900BA309800980BD0
:1000D8006B28990B6B289A0B6B280000FD30831254
:1000E80098001808860502309A0004309900BA3042
:1000F8009800980B7D28990B7D289A0B7D28000085
:0401080063280B2835
:08400000FF3FFF3FFF3FFF3FC0
:02400E00F93F78
:00000001FF
